{
  "_format": "hh-sol-artifact-1",
  "contractName": "EthereumConfig",
  "sourceName": "@fhevm/solidity/config/ZamaConfig.sol",
  "abi": [
    {
      "inputs": [],
      "stateMutability": "nonpayable",
      "type": "constructor"
    },
    {
      "inputs": [],
      "name": "protocolId",
      "outputs": [
        {
          "internalType": "uint256",
          "name": "",
          "type": "uint256"
        }
      ],
      "stateMutability": "pure",
      "type": "function"
    }
  ],
  "bytecode": "0x6080604052346100fc575f6060610014610100565b82815282602082015282604082015201525f6060610030610100565b8281526020810183905260408082018490529101919091527f9e7b61f58c47dc699ac88507c4f5bb9f121c03808c5676a8078fe583e464970080546001600160a01b03199081169091557f9e7b61f58c47dc699ac88507c4f5bb9f121c03808c5676a8078fe583e46497018054821690557f9e7b61f58c47dc699ac88507c4f5bb9f121c03808c5676a8078fe583e46497028054821690557f9e7b61f58c47dc699ac88507c4f5bb9f121c03808c5676a8078fe583e46497038054909116905551604b90816101348239f35b5f80fd5b60405190608082016001600160401b0381118382101761011f57604052565b634e487b7160e01b5f52604160045260245ffdfe60808060405260043610156011575f80fd5b5f3560e01c63da1f12ab146023575f80fd5b34603a575f366003190112603a5780600160209252f35b5f80fdfea164736f6c634300081b000a",
  "deployedBytecode": "0x60808060405260043610156011575f80fd5b5f3560e01c63da1f12ab146023575f80fd5b34603a575f366003190112603a5780600160209252f35b5f80fdfea164736f6c634300081b000a",
  "linkReferences": {},
  "deployedLinkReferences": {}
}