{
  "_format": "hh-sol-artifact-1",
  "contractName": "EarnProtocol",
  "sourceName": "contracts/EarnProtocol.sol",
  "abi": [
    {
      "inputs": [],
      "stateMutability": "nonpayable",
      "type": "constructor"
    },
    {
      "anonymous": false,
      "inputs": [
        {
          "indexed": true,
          "internalType": "address",
          "name": "user",
          "type": "address"
        },
        {
          "indexed": false,
          "internalType": "uint256",
          "name": "amount",
          "type": "uint256"
        }
      ],
      "name": "RewardsClaimed",
      "type": "event"
    },
    {
      "anonymous": false,
      "inputs": [
        {
          "indexed": true,
          "internalType": "address",
          "name": "user",
          "type": "address"
        },
        {
          "indexed": false,
          "internalType": "uint256",
          "name": "score",
          "type": "uint256"
        }
      ],
      "name": "ScoreCalculated",
      "type": "event"
    },
    {
      "anonymous": false,
      "inputs": [
        {
          "indexed": true,
          "internalType": "address",
          "name": "user",
          "type": "address"
        },
        {
          "indexed": false,
          "internalType": "uint256",
          "name": "amount",
          "type": "uint256"
        },
        {
          "indexed": false,
          "internalType": "uint256",
          "name": "score",
          "type": "uint256"
        }
      ],
      "name": "Staked",
      "type": "event"
    },
    {
      "anonymous": false,
      "inputs": [
        {
          "indexed": true,
          "internalType": "address",
          "name": "user",
          "type": "address"
        },
        {
          "indexed": false,
          "internalType": "uint256",
          "name": "amount",
          "type": "uint256"
        }
      ],
      "name": "Withdrawn",
      "type": "event"
    },
    {
      "inputs": [
        {
          "internalType": "externalEuint64",
          "name": "walletAge",
          "type": "bytes32"
        },
        {
          "internalType": "externalEuint64",
          "name": "transactionCount",
          "type": "bytes32"
        },
        {
          "internalType": "externalEuint64",
          "name": "ethBalance",
          "type": "bytes32"
        },
        {
          "internalType": "externalEuint64",
          "name": "totalGasUsed",
          "type": "bytes32"
        },
        {
          "internalType": "externalEuint64",
          "name": "averageTxValue",
          "type": "bytes32"
        },
        {
          "internalType": "externalEuint64",
          "name": "uniqueContracts",
          "type": "bytes32"
        },
        {
          "internalType": "bytes",
          "name": "inputProof",
          "type": "bytes"
        }
      ],
      "name": "calculateEncryptedScore",
      "outputs": [
        {
          "internalType": "euint64",
          "name": "",
          "type": "bytes32"
        }
      ],
      "stateMutability": "nonpayable",
      "type": "function"
    },
    {
      "inputs": [
        {
          "internalType": "uint256",
          "name": "score",
          "type": "uint256"
        }
      ],
      "name": "calculateInterestRate",
      "outputs": [
        {
          "internalType": "uint256",
          "name": "",
          "type": "uint256"
        }
      ],
      "stateMutability": "pure",
      "type": "function"
    },
    {
      "inputs": [
        {
          "internalType": "uint256",
          "name": "walletAge",
          "type": "uint256"
        },
        {
          "internalType": "uint256",
          "name": "transactionCount",
          "type": "uint256"
        },
        {
          "internalType": "uint256",
          "name": "ethBalance",
          "type": "uint256"
        },
        {
          "internalType": "uint256",
          "name": "totalGasUsed",
          "type": "uint256"
        },
        {
          "internalType": "uint256",
          "name": "averageTxValue",
          "type": "uint256"
        },
        {
          "internalType": "uint256",
          "name": "uniqueContracts",
          "type": "uint256"
        }
      ],
      "name": "calculatePlainScore",
      "outputs": [
        {
          "internalType": "uint256",
          "name": "",
          "type": "uint256"
        }
      ],
      "stateMutability": "nonpayable",
      "type": "function"
    },
    {
      "inputs": [
        {
          "internalType": "address",
          "name": "user",
          "type": "address"
        }
      ],
      "name": "canClaim",
      "outputs": [
        {
          "internalType": "bool",
          "name": "",
          "type": "bool"
        }
      ],
      "stateMutability": "view",
      "type": "function"
    },
    {
      "inputs": [
        {
          "internalType": "uint256",
          "name": "userScore",
          "type": "uint256"
        }
      ],
      "name": "claimRewards",
      "outputs": [],
      "stateMutability": "nonpayable",
      "type": "function"
    },
    {
      "inputs": [],
      "name": "contractBalance",
      "outputs": [
        {
          "internalType": "uint256",
          "name": "",
          "type": "uint256"
        }
      ],
      "stateMutability": "view",
      "type": "function"
    },
    {
      "inputs": [],
      "name": "getEncryptedScore",
      "outputs": [
        {
          "internalType": "euint64",
          "name": "",
          "type": "bytes32"
        }
      ],
      "stateMutability": "view",
      "type": "function"
    },
    {
      "inputs": [
        {
          "internalType": "address",
          "name": "user",
          "type": "address"
        }
      ],
      "name": "getUserData",
      "outputs": [
        {
          "internalType": "uint256",
          "name": "_stakedAmount",
          "type": "uint256"
        },
        {
          "internalType": "uint256",
          "name": "_lastClaimTime",
          "type": "uint256"
        },
        {
          "internalType": "uint256",
          "name": "_totalEarned",
          "type": "uint256"
        },
        {
          "internalType": "bool",
          "name": "_hasStaked",
          "type": "bool"
        }
      ],
      "stateMutability": "view",
      "type": "function"
    },
    {
      "inputs": [
        {
          "internalType": "address",
          "name": "user",
          "type": "address"
        }
      ],
      "name": "getUserScoreStatus",
      "outputs": [
        {
          "internalType": "bool",
          "name": "hasCalculated",
          "type": "bool"
        },
        {
          "internalType": "uint256",
          "name": "score",
          "type": "uint256"
        }
      ],
      "stateMutability": "view",
      "type": "function"
    },
    {
      "inputs": [
        {
          "internalType": "address",
          "name": "",
          "type": "address"
        }
      ],
      "name": "hasCalculatedScore",
      "outputs": [
        {
          "internalType": "bool",
          "name": "",
          "type": "bool"
        }
      ],
      "stateMutability": "view",
      "type": "function"
    },
    {
      "inputs": [
        {
          "internalType": "address",
          "name": "",
          "type": "address"
        }
      ],
      "name": "hasStaked",
      "outputs": [
        {
          "internalType": "bool",
          "name": "",
          "type": "bool"
        }
      ],
      "stateMutability": "view",
      "type": "function"
    },
    {
      "inputs": [
        {
          "internalType": "address",
          "name": "",
          "type": "address"
        }
      ],
      "name": "lastClaimTime",
      "outputs": [
        {
          "internalType": "uint256",
          "name": "",
          "type": "uint256"
        }
      ],
      "stateMutability": "view",
      "type": "function"
    },
    {
      "inputs": [],
      "name": "owner",
      "outputs": [
        {
          "internalType": "address",
          "name": "",
          "type": "address"
        }
      ],
      "stateMutability": "view",
      "type": "function"
    },
    {
      "inputs": [],
      "name": "protocolId",
      "outputs": [
        {
          "internalType": "uint256",
          "name": "",
          "type": "uint256"
        }
      ],
      "stateMutability": "pure",
      "type": "function"
    },
    {
      "inputs": [],
      "name": "stake",
      "outputs": [],
      "stateMutability": "payable",
      "type": "function"
    },
    {
      "inputs": [
        {
          "internalType": "uint256",
          "name": "walletAge",
          "type": "uint256"
        },
        {
          "internalType": "uint256",
          "name": "transactionCount",
          "type": "uint256"
        },
        {
          "internalType": "uint256",
          "name": "ethBalance",
          "type": "uint256"
        },
        {
          "internalType": "uint256",
          "name": "totalGasUsed",
          "type": "uint256"
        },
        {
          "internalType": "uint256",
          "name": "averageTxValue",
          "type": "uint256"
        },
        {
          "internalType": "uint256",
          "name": "uniqueContracts",
          "type": "uint256"
        },
        {
          "internalType": "bytes",
          "name": "inputProof",
          "type": "bytes"
        }
      ],
      "name": "stakeWithEncryptedScore",
      "outputs": [],
      "stateMutability": "payable",
      "type": "function"
    },
    {
      "inputs": [
        {
          "internalType": "address",
          "name": "",
          "type": "address"
        }
      ],
      "name": "stakedAmount",
      "outputs": [
        {
          "internalType": "uint256",
          "name": "",
          "type": "uint256"
        }
      ],
      "stateMutability": "view",
      "type": "function"
    },
    {
      "inputs": [
        {
          "internalType": "address",
          "name": "",
          "type": "address"
        }
      ],
      "name": "totalEarned",
      "outputs": [
        {
          "internalType": "uint256",
          "name": "",
          "type": "uint256"
        }
      ],
      "stateMutability": "view",
      "type": "function"
    },
    {
      "inputs": [],
      "name": "totalStaked",
      "outputs": [
        {
          "internalType": "uint256",
          "name": "",
          "type": "uint256"
        }
      ],
      "stateMutability": "view",
      "type": "function"
    },
    {
      "inputs": [],
      "name": "updateContractBalance",
      "outputs": [],
      "stateMutability": "nonpayable",
      "type": "function"
    },
    {
      "inputs": [
        {
          "internalType": "address",
          "name": "",
          "type": "address"
        }
      ],
      "name": "userPlainScore",
      "outputs": [
        {
          "internalType": "uint256",
          "name": "",
          "type": "uint256"
        }
      ],
      "stateMutability": "view",
      "type": "function"
    },
    {
      "inputs": [],
      "name": "withdraw",
      "outputs": [],
      "stateMutability": "nonpayable",
      "type": "function"
    },
    {
      "inputs": [],
      "name": "withdrawContractBalance",
      "outputs": [],
      "stateMutability": "nonpayable",
      "type": "function"
    },
    {
      "stateMutability": "payable",
      "type": "receive"
    }
  ],
  "bytecode": "0x608060405234801561000f575f5ffd5b5061018a6100ae604080516080810182525f808252602082018190529181018290526060810191909152506040805160808101825273687820221192c5b662b25367f70076a37bc79b6c815273848b0066793bcc60346da1f49049357399b8d595602082015273a02cda4ca3a71d7c46997716f4283aa851c2881291810191909152731364cbbf2cdf5032c47d8226a6f6fbd2afcdacac606082015290565b80517f9e7b61f58c47dc699ac88507c4f5bb9f121c03808c5676a8078fe583e464970080546001600160a01b03199081166001600160a01b039384161790915560208301517f9e7b61f58c47dc699ac88507c4f5bb9f121c03808c5676a8078fe583e46497018054831691841691909117905560408301517f9e7b61f58c47dc699ac88507c4f5bb9f121c03808c5676a8078fe583e46497028054831691841691909117905560608301517f9e7b61f58c47dc699ac88507c4f5bb9f121c03808c5676a8078fe583e46497038054909216921691909117905550565b600980546001600160a01b031916331790556116f0806101a95f395ff3fe60806040526004361061017b575f3560e01c80638b7afe2e116100d1578063c93c8f341161007c578063deee35f111610057578063deee35f114610415578063f993185514610471578063ffc9896b1461049c575f5ffd5b8063c93c8f34146103b4578063da1f12ab146103e2578063db46c5b4146103f6575f5ffd5b8063b77cf9c6116100ac578063b77cf9c614610356578063bf3506c114610381578063bfab3db9146103a0575f5ffd5b80638b7afe2e146102eb5780638da5cb5b1461030057806390d3b37914610337575f5ffd5b806346c2fff511610131578063649aca4a1161010c578063649aca4a1461026d5780637010190014610298578063817b1cd2146102d6575f5ffd5b806346c2fff5146102275780635915009f1461023b5780635cc1402f1461025a575f5ffd5b80633a4b66f1116101615780633a4b66f1146101e05780633c854370146101e85780633ccfd60b14610213575f5ffd5b80630962ef791461019d5780630a9981e8146101be575f5ffd5b36610199573460085f82825461019191906114aa565b925050819055005b5f5ffd5b3480156101a8575f5ffd5b506101bc6101b73660046114bd565b610516565b005b3480156101c9575f5ffd5b505f545b6040519081526020015b60405180910390f35b6101bc6106f2565b3480156101f3575f5ffd5b506101cd6102023660046114d4565b60066020525f908152604090205481565b34801561021e575f5ffd5b506101bc610801565b348015610232575f5ffd5b506101bc61096d565b348015610246575f5ffd5b506101cd6102553660046114fa565b6109d7565b6101bc61026836600461157e565b610b62565b348015610278575f5ffd5b506101cd6102873660046114d4565b60036020525f908152604090205481565b3480156102a3575f5ffd5b506102c66102b23660046114d4565b60056020525f908152604090205460ff1681565b60405190151581526020016101d7565b3480156102e1575f5ffd5b506101cd60075481565b3480156102f6575f5ffd5b506101cd60085481565b34801561030b575f5ffd5b5060095461031f906001600160a01b031681565b6040516001600160a01b0390911681526020016101d7565b348015610342575f5ffd5b506101cd6103513660046114bd565b610d36565b348015610361575f5ffd5b506101cd6103703660046114d4565b60026020525f908152604090205481565b34801561038c575f5ffd5b506102c661039b3660046114d4565b610d9a565b3480156103ab575f5ffd5b506101bc610dee565b3480156103bf575f5ffd5b506102c66103ce3660046114d4565b60046020525f908152604090205460ff1681565b3480156103ed575f5ffd5b506127116101cd565b348015610401575f5ffd5b506101cd61041036600461157e565b610e8b565b348015610420575f5ffd5b5061045a61042f3660046114d4565b6001600160a01b03165f9081526005602090815260408083205460069092529091205460ff90911691565b6040805192151583526020830191909152016101d7565b34801561047c575f5ffd5b506101cd61048b3660046114d4565b60016020525f908152604090205481565b3480156104a7575f5ffd5b506104f46104b63660046114d4565b6001600160a01b03165f9081526001602090815260408083205460028352818420546003845282852054600490945291909320549293909260ff1690565b60408051948552602085019390935291830152151560608201526080016101d7565b335f9081526004602052604090205460ff1661056a5760405162461bcd60e51b815260206004820152600e60248201526d139bc81cdd185ad948199bdd5b9960921b60448201526064015b60405180910390fd5b335f9081526002602052604090205461058690620151806114aa565b4210156105d55760405162461bcd60e51b815260206004820152600d60248201527f5761697420323420686f757273000000000000000000000000000000000000006044820152606401610561565b5f6105df82610d36565b335f9081526001602052604081205491925090612710906106019084906115f5565b61060b919061160c565b90508047101561065d5760405162461bcd60e51b815260206004820152601d60248201527f496e73756666696369656e7420636f6e74726163742062616c616e63650000006044820152606401610561565b335f9081526002602090815260408083204290556003909152812080548392906106889084906114aa565b9091555050604051339082156108fc029083905f818181858888f193505050501580156106b7573d5f5f3e3d5ffd5b5060405181815233907ffc30cddea38e2bf4d6ea7d3f9ed3b6ad7f176419f4963bd81318067a4aee73fe9060200160405180910390a2505050565b5f341161074d5760405162461bcd60e51b815260206004820152602360248201527f5374616b6520616d6f756e74206d75737420626520677265617465722074686160448201526206e20360ec1b6064820152608401610561565b335f908152600160205260408120805434929061076b9084906114aa565b9091555050335f90815260026020908152604080832042905560049091528120805460ff19166001179055600780543492906107a89084906114aa565b925050819055503460085f8282546107c091906114aa565b9091555050604080513481525f602082015233917f1449c6dd7851abc30abf37f57715f492010519147cc2652fbc38202c18a6ee90910160405180910390a2565b335f9081526004602052604090205460ff166108505760405162461bcd60e51b815260206004820152600e60248201526d139bc81cdd185ad948199bdd5b9960921b6044820152606401610561565b335f908152600160205260409020546108ab5760405162461bcd60e51b815260206004820152601560248201527f4e6f20616d6f756e7420746f20776974686472617700000000000000000000006044820152606401610561565b335f9081526001602052604081205460078054919283926108cd90849061162b565b925050819055508060085f8282546108e5919061162b565b9091555050335f8181526001602090815260408083208390556004909152808220805460ff191690555183156108fc0291849190818181858888f19350505050158015610934573d5f5f3e3d5ffd5b5060405181815233907f7084f5476618d8e60b11ef0d7d3f06914655adb8793e28ff7f018d4c76d505d59060200160405180910390a250565b6009546001600160a01b031633146109d15760405162461bcd60e51b815260206004820152602160248201527f4f6e6c79206f776e65722063616e2063616c6c20746869732066756e6374696f6044820152603760f91b6064820152608401610561565b47600855565b5f8060646109e689601b6115f5565b6109f0919061160c565b6109fa90826114aa565b905060c8811115610a09575060c85b61012c871115610a195761012c96505b610a2387826114aa565b90505f620f4240610a358860646115f5565b610a3f919061160c565b905060c8811115610a4e575060c85b610a5881836114aa565b91505f610a67614e208861160c565b90506096811115610a76575060965b610a8081846114aa565b92505f620f4240610a93886101f46115f5565b610a9d919061160c565b90506064811115610aac575060645b610ab681856114aa565b93505f600a610ac68860196115f5565b610ad0919061160c565b90506032811115610adf575060325b610ae981866114aa565b94506103e8851115610afb576103e894505b335f818152600560209081526040808320805460ff19166001179055600682529182902088905590518781527f4f63780d585edbea86c409e7eb541e3ec6e7c3a648e7a393f61025c1b21cc788910160405180910390a250929a9950505050505050505050565b5f3411610bbd5760405162461bcd60e51b815260206004820152602360248201527f5374616b6520616d6f756e74206d75737420626520677265617465722074686160448201526206e20360ec1b6064820152608401610561565b5f610bc75f6110d1565b90505f610bd35f6110d1565b90505f610bdf5f6110d1565b90505f610beb5f6110d1565b90505f610bf75f6110d1565b90505f610c035f6110d1565b90505f610c0f5f6110d1565b9050610c1b81886110ed565b9050610c2781876110ed565b9050610c3381866110ed565b9050610c3f81856110ed565b9050610c4b81846110ed565b9050610c5781836110ed565b5f8190559050610c6681611122565b50610c725f5433611131565b50335f9081526001602052604081208054349290610c919084906114aa565b9091555050335f90815260026020908152604080832042905560049091528120805460ff1916600117905560078054349290610cce9084906114aa565b925050819055503460085f828254610ce691906114aa565b9091555050604080513481525f602082015233917f1449c6dd7851abc30abf37f57715f492010519147cc2652fbc38202c18a6ee90910160405180910390a2505050505050505050505050505050565b5f6103848210610d4957506105dc919050565b6103208210610d5b57506104e2919050565b6102bc8210610d6d57506103e8919050565b6102588210610d7f5750610320919050565b6101f48210610d915750610258919050565b50610190919050565b6001600160a01b0381165f9081526004602052604081205460ff16610dc057505f919050565b6001600160a01b0382165f90815260026020526040902054610de590620151806114aa565b42101592915050565b6009546001600160a01b03163314610e525760405162461bcd60e51b815260206004820152602160248201527f4f6e6c79206f776e65722063616e2063616c6c20746869732066756e6374696f6044820152603760f91b6064820152608401610561565b6009546040516001600160a01b03909116904780156108fc02915f818181858888f19350505050158015610e88573d5f5f3e3d5ffd5b50565b5f5f610ecc8a85858080601f0160208091040260200160405190810160405280939291908181526020018383808284375f9201919091525061114392505050565b90505f610f0e8a86868080601f0160208091040260200160405190810160405280939291908181526020018383808284375f9201919091525061114392505050565b90505f610f508a87878080601f0160208091040260200160405190810160405280939291908181526020018383808284375f9201919091525061114392505050565b90505f610f928a88888080601f0160208091040260200160405190810160405280939291908181526020018383808284375f9201919091525061114392505050565b90505f610fd48a89898080601f0160208091040260200160405190810160405280939291908181526020018383808284375f9201919091525061114392505050565b90505f6110168a8a8a8080601f0160208091040260200160405190810160405280939291908181526020018383808284375f9201919091525061114392505050565b90505f6110225f6110d1565b905061102e81886110ed565b905061103a81876110ed565b905061104681866110ed565b905061105281856110ed565b905061105e81846110ed565b905061106a81836110ed565b5f819055905061107981611122565b506110855f5433611131565b506040515f815233907f4f63780d585edbea86c409e7eb541e3ec6e7c3a648e7a393f61025c1b21cc7889060200160405180910390a250505f549e9d5050505050505050505050505050565b5f6110e78267ffffffffffffffff166005611150565b92915050565b5f826110ff576110fc5f6110d1565b92505b816111105761110d5f6110d1565b91505b61111b83835f61120d565b9392505050565b5f61112d82306112ed565b5090565b5f61113c83836112ed565b5090919050565b5f61111b83836005611376565b7f9e7b61f58c47dc699ac88507c4f5bb9f121c03808c5676a8078fe583e464970154604051639cd07acb60e01b81525f917f9e7b61f58c47dc699ac88507c4f5bb9f121c03808c5676a8078fe583e4649700916001600160a01b0390911690639cd07acb906111c5908790879060040161165e565b6020604051808303815f875af11580156111e1573d5f5f3e3d5ffd5b505050506040513d601f19601f820116820180604052508101906112059190611672565b949350505050565b5f5f82156112205750600160f81b611223565b505f5b5f7f9e7b61f58c47dc699ac88507c4f5bb9f121c03808c5676a8078fe583e4649700600181015460405163022f65e760e31b815260048101899052602481018890527fff00000000000000000000000000000000000000000000000000000000000000851660448201529192506001600160a01b03169063117b2f38906064016020604051808303815f875af11580156112bf573d5f5f3e3d5ffd5b505050506040513d601f19601f820116820180604052508101906112e39190611672565b9695505050505050565b5f7f9e7b61f58c47dc699ac88507c4f5bb9f121c03808c5676a8078fe583e46497008054604051635ca4b5b160e11b8152600481018690526001600160a01b03858116602483015292935091169063b9496b62906044015f604051808303815f87803b15801561135b575f5ffd5b505af115801561136d573d5f5f3e3d5ffd5b50505050505050565b7f9e7b61f58c47dc699ac88507c4f5bb9f121c03808c5676a8078fe583e46497015460405163196d0b9b60e01b81525f917f9e7b61f58c47dc699ac88507c4f5bb9f121c03808c5676a8078fe583e4649700916001600160a01b039091169063196d0b9b906113ef908890339089908990600401611689565b6020604051808303815f875af115801561140b573d5f5f3e3d5ffd5b505050506040513d601f19601f8201168201806040525081019061142f9190611672565b8154604051630f8e573b60e21b8152600481018390523360248201529193506001600160a01b031690633e395cec906044015f604051808303815f87803b158015611478575f5ffd5b505af115801561148a573d5f5f3e3d5ffd5b50505050509392505050565b634e487b7160e01b5f52601160045260245ffd5b808201808211156110e7576110e7611496565b5f602082840312156114cd575f5ffd5b5035919050565b5f602082840312156114e4575f5ffd5b81356001600160a01b038116811461111b575f5ffd5b5f5f5f5f5f5f60c0878903121561150f575f5ffd5b505084359660208601359650604086013595606081013595506080810135945060a0013592509050565b5f5f83601f840112611549575f5ffd5b50813567ffffffffffffffff811115611560575f5ffd5b602083019150836020828501011115611577575f5ffd5b9250929050565b5f5f5f5f5f5f5f5f60e0898b031215611595575f5ffd5b883597506020890135965060408901359550606089013594506080890135935060a0890135925060c089013567ffffffffffffffff8111156115d5575f5ffd5b6115e18b828c01611539565b999c989b5096995094979396929594505050565b80820281158282048414176110e7576110e7611496565b5f8261162657634e487b7160e01b5f52601260045260245ffd5b500490565b818103818111156110e7576110e7611496565b6054811061165a57634e487b7160e01b5f52602160045260245ffd5b9052565b8281526040810161111b602083018461163e565b5f60208284031215611682575f5ffd5b5051919050565b8481526001600160a01b0384166020820152608060408201525f8351806080840152806020860160a085015e5f60a0828501015260a0601f19601f8301168401019150506116da606083018461163e565b9594505050505056fea164736f6c634300081b000a",
  "linkReferences": {},
  "deployedLinkReferences": {}
}