{
  "_format": "hh-sol-artifact-1",
  "contractName": "EarnProtocol",
  "sourceName": "contracts/EarnProtocol.sol",
  "abi": [
    {
      "inputs": [],
      "stateMutability": "nonpayable",
      "type": "constructor"
    },
    {
      "anonymous": false,
      "inputs": [
        {
          "indexed": true,
          "internalType": "address",
          "name": "user",
          "type": "address"
        },
        {
          "indexed": false,
          "internalType": "uint256",
          "name": "amount",
          "type": "uint256"
        }
      ],
      "name": "RewardsClaimed",
      "type": "event"
    },
    {
      "anonymous": false,
      "inputs": [
        {
          "indexed": true,
          "internalType": "address",
          "name": "user",
          "type": "address"
        },
        {
          "indexed": false,
          "internalType": "uint256",
          "name": "score",
          "type": "uint256"
        }
      ],
      "name": "ScoreCalculated",
      "type": "event"
    },
    {
      "anonymous": false,
      "inputs": [
        {
          "indexed": true,
          "internalType": "address",
          "name": "user",
          "type": "address"
        },
        {
          "indexed": false,
          "internalType": "uint256",
          "name": "amount",
          "type": "uint256"
        },
        {
          "indexed": false,
          "internalType": "uint256",
          "name": "score",
          "type": "uint256"
        }
      ],
      "name": "Staked",
      "type": "event"
    },
    {
      "anonymous": false,
      "inputs": [
        {
          "indexed": true,
          "internalType": "address",
          "name": "user",
          "type": "address"
        },
        {
          "indexed": false,
          "internalType": "uint256",
          "name": "amount",
          "type": "uint256"
        }
      ],
      "name": "Withdrawn",
      "type": "event"
    },
    {
      "inputs": [
        {
          "internalType": "externalEuint64",
          "name": "walletAge",
          "type": "bytes32"
        },
        {
          "internalType": "externalEuint64",
          "name": "transactionCount",
          "type": "bytes32"
        },
        {
          "internalType": "externalEuint64",
          "name": "ethBalance",
          "type": "bytes32"
        },
        {
          "internalType": "externalEuint64",
          "name": "totalGasUsed",
          "type": "bytes32"
        },
        {
          "internalType": "externalEuint64",
          "name": "averageTxValue",
          "type": "bytes32"
        },
        {
          "internalType": "externalEuint64",
          "name": "uniqueContracts",
          "type": "bytes32"
        },
        {
          "internalType": "bytes",
          "name": "inputProof",
          "type": "bytes"
        }
      ],
      "name": "calculateEncryptedScore",
      "outputs": [
        {
          "internalType": "euint64",
          "name": "",
          "type": "bytes32"
        }
      ],
      "stateMutability": "nonpayable",
      "type": "function"
    },
    {
      "inputs": [
        {
          "internalType": "uint256",
          "name": "score",
          "type": "uint256"
        }
      ],
      "name": "calculateInterestRate",
      "outputs": [
        {
          "internalType": "uint256",
          "name": "",
          "type": "uint256"
        }
      ],
      "stateMutability": "pure",
      "type": "function"
    },
    {
      "inputs": [
        {
          "internalType": "uint256",
          "name": "walletAge",
          "type": "uint256"
        },
        {
          "internalType": "uint256",
          "name": "transactionCount",
          "type": "uint256"
        },
        {
          "internalType": "uint256",
          "name": "ethBalance",
          "type": "uint256"
        },
        {
          "internalType": "uint256",
          "name": "totalGasUsed",
          "type": "uint256"
        },
        {
          "internalType": "uint256",
          "name": "averageTxValue",
          "type": "uint256"
        },
        {
          "internalType": "uint256",
          "name": "uniqueContracts",
          "type": "uint256"
        }
      ],
      "name": "calculatePlainScore",
      "outputs": [
        {
          "internalType": "uint256",
          "name": "",
          "type": "uint256"
        }
      ],
      "stateMutability": "nonpayable",
      "type": "function"
    },
    {
      "inputs": [
        {
          "internalType": "address",
          "name": "user",
          "type": "address"
        }
      ],
      "name": "canClaim",
      "outputs": [
        {
          "internalType": "bool",
          "name": "",
          "type": "bool"
        }
      ],
      "stateMutability": "view",
      "type": "function"
    },
    {
      "inputs": [
        {
          "internalType": "uint256",
          "name": "userScore",
          "type": "uint256"
        }
      ],
      "name": "claimRewards",
      "outputs": [],
      "stateMutability": "nonpayable",
      "type": "function"
    },
    {
      "inputs": [],
      "name": "contractBalance",
      "outputs": [
        {
          "internalType": "uint256",
          "name": "",
          "type": "uint256"
        }
      ],
      "stateMutability": "view",
      "type": "function"
    },
    {
      "inputs": [],
      "name": "getEncryptedScore",
      "outputs": [
        {
          "internalType": "euint64",
          "name": "",
          "type": "bytes32"
        }
      ],
      "stateMutability": "view",
      "type": "function"
    },
    {
      "inputs": [
        {
          "internalType": "address",
          "name": "user",
          "type": "address"
        }
      ],
      "name": "getUserData",
      "outputs": [
        {
          "internalType": "uint256",
          "name": "_stakedAmount",
          "type": "uint256"
        },
        {
          "internalType": "uint256",
          "name": "_lastClaimTime",
          "type": "uint256"
        },
        {
          "internalType": "uint256",
          "name": "_totalEarned",
          "type": "uint256"
        },
        {
          "internalType": "bool",
          "name": "_hasStaked",
          "type": "bool"
        }
      ],
      "stateMutability": "view",
      "type": "function"
    },
    {
      "inputs": [
        {
          "internalType": "address",
          "name": "user",
          "type": "address"
        }
      ],
      "name": "getUserScoreStatus",
      "outputs": [
        {
          "internalType": "bool",
          "name": "hasCalculated",
          "type": "bool"
        },
        {
          "internalType": "uint256",
          "name": "score",
          "type": "uint256"
        }
      ],
      "stateMutability": "view",
      "type": "function"
    },
    {
      "inputs": [
        {
          "internalType": "address",
          "name": "",
          "type": "address"
        }
      ],
      "name": "hasCalculatedScore",
      "outputs": [
        {
          "internalType": "bool",
          "name": "",
          "type": "bool"
        }
      ],
      "stateMutability": "view",
      "type": "function"
    },
    {
      "inputs": [
        {
          "internalType": "address",
          "name": "",
          "type": "address"
        }
      ],
      "name": "hasStaked",
      "outputs": [
        {
          "internalType": "bool",
          "name": "",
          "type": "bool"
        }
      ],
      "stateMutability": "view",
      "type": "function"
    },
    {
      "inputs": [
        {
          "internalType": "address",
          "name": "",
          "type": "address"
        }
      ],
      "name": "lastClaimTime",
      "outputs": [
        {
          "internalType": "uint256",
          "name": "",
          "type": "uint256"
        }
      ],
      "stateMutability": "view",
      "type": "function"
    },
    {
      "inputs": [],
      "name": "owner",
      "outputs": [
        {
          "internalType": "address",
          "name": "",
          "type": "address"
        }
      ],
      "stateMutability": "view",
      "type": "function"
    },
    {
      "inputs": [],
      "name": "protocolId",
      "outputs": [
        {
          "internalType": "uint256",
          "name": "",
          "type": "uint256"
        }
      ],
      "stateMutability": "pure",
      "type": "function"
    },
    {
      "inputs": [
        {
          "internalType": "externalEuint64",
          "name": "walletAge",
          "type": "bytes32"
        },
        {
          "internalType": "externalEuint64",
          "name": "transactionCount",
          "type": "bytes32"
        },
        {
          "internalType": "externalEuint64",
          "name": "ethBalance",
          "type": "bytes32"
        },
        {
          "internalType": "externalEuint64",
          "name": "totalGasUsed",
          "type": "bytes32"
        },
        {
          "internalType": "externalEuint64",
          "name": "averageTxValue",
          "type": "bytes32"
        },
        {
          "internalType": "externalEuint64",
          "name": "uniqueContracts",
          "type": "bytes32"
        },
        {
          "internalType": "bytes",
          "name": "inputProof",
          "type": "bytes"
        }
      ],
      "name": "stakeWithEncryptedScore",
      "outputs": [],
      "stateMutability": "payable",
      "type": "function"
    },
    {
      "inputs": [
        {
          "internalType": "address",
          "name": "",
          "type": "address"
        }
      ],
      "name": "stakedAmount",
      "outputs": [
        {
          "internalType": "uint256",
          "name": "",
          "type": "uint256"
        }
      ],
      "stateMutability": "view",
      "type": "function"
    },
    {
      "inputs": [
        {
          "internalType": "address",
          "name": "",
          "type": "address"
        }
      ],
      "name": "totalEarned",
      "outputs": [
        {
          "internalType": "uint256",
          "name": "",
          "type": "uint256"
        }
      ],
      "stateMutability": "view",
      "type": "function"
    },
    {
      "inputs": [],
      "name": "totalStaked",
      "outputs": [
        {
          "internalType": "uint256",
          "name": "",
          "type": "uint256"
        }
      ],
      "stateMutability": "view",
      "type": "function"
    },
    {
      "inputs": [],
      "name": "updateContractBalance",
      "outputs": [],
      "stateMutability": "nonpayable",
      "type": "function"
    },
    {
      "inputs": [
        {
          "internalType": "address",
          "name": "",
          "type": "address"
        }
      ],
      "name": "userPlainScore",
      "outputs": [
        {
          "internalType": "uint256",
          "name": "",
          "type": "uint256"
        }
      ],
      "stateMutability": "view",
      "type": "function"
    },
    {
      "inputs": [],
      "name": "withdraw",
      "outputs": [],
      "stateMutability": "nonpayable",
      "type": "function"
    },
    {
      "inputs": [],
      "name": "withdrawContractBalance",
      "outputs": [],
      "stateMutability": "nonpayable",
      "type": "function"
    },
    {
      "stateMutability": "payable",
      "type": "receive"
    }
  ],
  "bytecode": "0x608060405234801561000f575f5ffd5b5061018a6100ae604080516080810182525f808252602082018190529181018290526060810191909152506040805160808101825273687820221192c5b662b25367f70076a37bc79b6c815273848b0066793bcc60346da1f49049357399b8d595602082015273a02cda4ca3a71d7c46997716f4283aa851c2881291810191909152731364cbbf2cdf5032c47d8226a6f6fbd2afcdacac606082015290565b80517f9e7b61f58c47dc699ac88507c4f5bb9f121c03808c5676a8078fe583e464970080546001600160a01b03199081166001600160a01b039384161790915560208301517f9e7b61f58c47dc699ac88507c4f5bb9f121c03808c5676a8078fe583e46497018054831691841691909117905560408301517f9e7b61f58c47dc699ac88507c4f5bb9f121c03808c5676a8078fe583e46497028054831691841691909117905560608301517f9e7b61f58c47dc699ac88507c4f5bb9f121c03808c5676a8078fe583e46497038054909216921691909117905550565b600980546001600160a01b031916331790556116fd806101a95f395ff3fe608060405260043610610170575f3560e01c80638da5cb5b116100c6578063c93c8f341161007c578063deee35f111610057578063deee35f114610402578063f99318551461045e578063ffc9896b14610489575f5ffd5b8063c93c8f34146103a1578063da1f12ab146103cf578063db46c5b4146103e3575f5ffd5b8063b77cf9c6116100ac578063b77cf9c614610343578063bf3506c11461036e578063bfab3db91461038d575f5ffd5b80638da5cb5b146102ed57806390d3b37914610324575f5ffd5b80635915009f1161012657806370101900116101015780637010190014610285578063817b1cd2146102c35780638b7afe2e146102d8575f5ffd5b80635915009f1461022857806361db198914610247578063649aca4a1461025a575f5ffd5b80633c854370116101565780633c854370146101d55780633ccfd60b1461020057806346c2fff514610214575f5ffd5b80630962ef79146101925780630a9981e8146101b3575f5ffd5b3661018e573460085f82825461018691906114c8565b925050819055005b5f5ffd5b34801561019d575f5ffd5b506101b16101ac3660046114db565b610503565b005b3480156101be575f5ffd5b505f545b6040519081526020015b60405180910390f35b3480156101e0575f5ffd5b506101c26101ef3660046114f2565b60066020525f908152604090205481565b34801561020b575f5ffd5b506101b16106df565b34801561021f575f5ffd5b506101b161084b565b348015610233575f5ffd5b506101c261024236600461151f565b6108b5565b6101b161025536600461155e565b610a40565b348015610265575f5ffd5b506101c26102743660046114f2565b60036020525f908152604090205481565b348015610290575f5ffd5b506102b361029f3660046114f2565b60056020525f908152604090205460ff1681565b60405190151581526020016101cc565b3480156102ce575f5ffd5b506101c260075481565b3480156102e3575f5ffd5b506101c260085481565b3480156102f8575f5ffd5b5060095461030c906001600160a01b031681565b6040516001600160a01b0390911681526020016101cc565b34801561032f575f5ffd5b506101c261033e3660046114db565b610d58565b34801561034e575f5ffd5b506101c261035d3660046114f2565b60026020525f908152604090205481565b348015610379575f5ffd5b506102b36103883660046114f2565b610dbc565b348015610398575f5ffd5b506101b1610e10565b3480156103ac575f5ffd5b506102b36103bb3660046114f2565b60046020525f908152604090205460ff1681565b3480156103da575f5ffd5b506127116101c2565b3480156103ee575f5ffd5b506101c26103fd36600461155e565b610ead565b34801561040d575f5ffd5b5061044761041c3660046114f2565b6001600160a01b03165f9081526005602090815260408083205460069092529091205460ff90911691565b6040805192151583526020830191909152016101cc565b348015610469575f5ffd5b506101c26104783660046114f2565b60016020525f908152604090205481565b348015610494575f5ffd5b506104e16104a33660046114f2565b6001600160a01b03165f9081526001602090815260408083205460028352818420546003845282852054600490945291909320549293909260ff1690565b60408051948552602085019390935291830152151560608201526080016101cc565b335f9081526004602052604090205460ff166105575760405162461bcd60e51b815260206004820152600e60248201526d139bc81cdd185ad948199bdd5b9960921b60448201526064015b60405180910390fd5b335f9081526002602052604090205461057390620151806114c8565b4210156105c25760405162461bcd60e51b815260206004820152600d60248201527f5761697420323420686f75727300000000000000000000000000000000000000604482015260640161054e565b5f6105cc82610d58565b335f9081526001602052604081205491925090612710906105ee908490611602565b6105f89190611619565b90508047101561064a5760405162461bcd60e51b815260206004820152601d60248201527f496e73756666696369656e7420636f6e74726163742062616c616e6365000000604482015260640161054e565b335f9081526002602090815260408083204290556003909152812080548392906106759084906114c8565b9091555050604051339082156108fc029083905f818181858888f193505050501580156106a4573d5f5f3e3d5ffd5b5060405181815233907ffc30cddea38e2bf4d6ea7d3f9ed3b6ad7f176419f4963bd81318067a4aee73fe9060200160405180910390a2505050565b335f9081526004602052604090205460ff1661072e5760405162461bcd60e51b815260206004820152600e60248201526d139bc81cdd185ad948199bdd5b9960921b604482015260640161054e565b335f908152600160205260409020546107895760405162461bcd60e51b815260206004820152601560248201527f4e6f20616d6f756e7420746f2077697468647261770000000000000000000000604482015260640161054e565b335f9081526001602052604081205460078054919283926107ab908490611638565b925050819055508060085f8282546107c39190611638565b9091555050335f8181526001602090815260408083208390556004909152808220805460ff191690555183156108fc0291849190818181858888f19350505050158015610812573d5f5f3e3d5ffd5b5060405181815233907f7084f5476618d8e60b11ef0d7d3f06914655adb8793e28ff7f018d4c76d505d59060200160405180910390a250565b6009546001600160a01b031633146108af5760405162461bcd60e51b815260206004820152602160248201527f4f6e6c79206f776e65722063616e2063616c6c20746869732066756e6374696f6044820152603760f91b606482015260840161054e565b47600855565b5f8060646108c489601b611602565b6108ce9190611619565b6108d890826114c8565b905060c88111156108e7575060c85b61012c8711156108f75761012c96505b61090187826114c8565b90505f620f4240610913886064611602565b61091d9190611619565b905060c881111561092c575060c85b61093681836114c8565b91505f610945614e2088611619565b90506096811115610954575060965b61095e81846114c8565b92505f620f4240610971886101f4611602565b61097b9190611619565b9050606481111561098a575060645b61099481856114c8565b93505f600a6109a4886019611602565b6109ae9190611619565b905060328111156109bd575060325b6109c781866114c8565b94506103e88511156109d9576103e894505b335f818152600560209081526040808320805460ff19166001179055600682529182902088905590518781527f4f63780d585edbea86c409e7eb541e3ec6e7c3a648e7a393f61025c1b21cc788910160405180910390a250929a9950505050505050505050565b5f3411610a9b5760405162461bcd60e51b815260206004820152602360248201527f5374616b6520616d6f756e74206d75737420626520677265617465722074686160448201526206e20360ec1b606482015260840161054e565b5f610adb8984848080601f0160208091040260200160405190810160405280939291908181526020018383808284375f920191909152506110f392505050565b90505f610b1d8985858080601f0160208091040260200160405190810160405280939291908181526020018383808284375f920191909152506110f392505050565b90505f610b5f8986868080601f0160208091040260200160405190810160405280939291908181526020018383808284375f920191909152506110f392505050565b90505f610ba18987878080601f0160208091040260200160405190810160405280939291908181526020018383808284375f920191909152506110f392505050565b90505f610be38988888080601f0160208091040260200160405190810160405280939291908181526020018383808284375f920191909152506110f392505050565b90505f610c258989898080601f0160208091040260200160405190810160405280939291908181526020018383808284375f920191909152506110f392505050565b90505f610c315f611109565b9050610c3d818861111f565b9050610c49818761111f565b9050610c55818661111f565b9050610c61818561111f565b9050610c6d818461111f565b9050610c79818361111f565b5f8190559050610c888161114d565b50610c945f543361115c565b50335f9081526001602052604081208054349290610cb39084906114c8565b9091555050335f90815260026020908152604080832042905560049091528120805460ff1916600117905560078054349290610cf09084906114c8565b925050819055503460085f828254610d0891906114c8565b9091555050604080513481525f602082015233917f1449c6dd7851abc30abf37f57715f492010519147cc2652fbc38202c18a6ee90910160405180910390a2505050505050505050505050505050565b5f6103848210610d6b57506105dc919050565b6103208210610d7d57506104e2919050565b6102bc8210610d8f57506103e8919050565b6102588210610da15750610320919050565b6101f48210610db35750610258919050565b50610190919050565b6001600160a01b0381165f9081526004602052604081205460ff16610de257505f919050565b6001600160a01b0382165f90815260026020526040902054610e0790620151806114c8565b42101592915050565b6009546001600160a01b03163314610e745760405162461bcd60e51b815260206004820152602160248201527f4f6e6c79206f776e65722063616e2063616c6c20746869732066756e6374696f6044820152603760f91b606482015260840161054e565b6009546040516001600160a01b03909116904780156108fc02915f818181858888f19350505050158015610eaa573d5f5f3e3d5ffd5b50565b5f5f610eee8a85858080601f0160208091040260200160405190810160405280939291908181526020018383808284375f920191909152506110f392505050565b90505f610f308a86868080601f0160208091040260200160405190810160405280939291908181526020018383808284375f920191909152506110f392505050565b90505f610f728a87878080601f0160208091040260200160405190810160405280939291908181526020018383808284375f920191909152506110f392505050565b90505f610fb48a88888080601f0160208091040260200160405190810160405280939291908181526020018383808284375f920191909152506110f392505050565b90505f610ff68a89898080601f0160208091040260200160405190810160405280939291908181526020018383808284375f920191909152506110f392505050565b90505f6110388a8a8a8080601f0160208091040260200160405190810160405280939291908181526020018383808284375f920191909152506110f392505050565b90505f6110445f611109565b9050611050818861111f565b905061105c818761111f565b9050611068818661111f565b9050611074818561111f565b9050611080818461111f565b905061108c818361111f565b5f819055905061109b8161114d565b506110a75f543361115c565b506040515f815233907f4f63780d585edbea86c409e7eb541e3ec6e7c3a648e7a393f61025c1b21cc7889060200160405180910390a250505f549e9d5050505050505050505050505050565b5f6111008383600561116e565b90505b92915050565b5f6111038267ffffffffffffffff16600561128e565b5f826111315761112e5f611109565b92505b816111425761113f5f611109565b91505b61110083835f61134b565b5f611158823061142b565b5090565b5f611167838361142b565b5090919050565b7f9e7b61f58c47dc699ac88507c4f5bb9f121c03808c5676a8078fe583e46497015460405163196d0b9b60e01b81525f917f9e7b61f58c47dc699ac88507c4f5bb9f121c03808c5676a8078fe583e4649700916001600160a01b039091169063196d0b9b906111e790889033908990899060040161166b565b6020604051808303815f875af1158015611203573d5f5f3e3d5ffd5b505050506040513d601f19601f8201168201806040525081019061122791906116c5565b8154604051630f8e573b60e21b8152600481018390523360248201529193506001600160a01b031690633e395cec906044015f604051808303815f87803b158015611270575f5ffd5b505af1158015611282573d5f5f3e3d5ffd5b50505050509392505050565b7f9e7b61f58c47dc699ac88507c4f5bb9f121c03808c5676a8078fe583e464970154604051639cd07acb60e01b81525f917f9e7b61f58c47dc699ac88507c4f5bb9f121c03808c5676a8078fe583e4649700916001600160a01b0390911690639cd07acb9061130390879087906004016116dc565b6020604051808303815f875af115801561131f573d5f5f3e3d5ffd5b505050506040513d601f19601f8201168201806040525081019061134391906116c5565b949350505050565b5f5f821561135e5750600160f81b611361565b505f5b5f7f9e7b61f58c47dc699ac88507c4f5bb9f121c03808c5676a8078fe583e4649700600181015460405163022f65e760e31b815260048101899052602481018890527fff00000000000000000000000000000000000000000000000000000000000000851660448201529192506001600160a01b03169063117b2f38906064016020604051808303815f875af11580156113fd573d5f5f3e3d5ffd5b505050506040513d601f19601f8201168201806040525081019061142191906116c5565b9695505050505050565b5f7f9e7b61f58c47dc699ac88507c4f5bb9f121c03808c5676a8078fe583e46497008054604051635ca4b5b160e11b8152600481018690526001600160a01b03858116602483015292935091169063b9496b62906044015f604051808303815f87803b158015611499575f5ffd5b505af11580156114ab573d5f5f3e3d5ffd5b50505050505050565b634e487b7160e01b5f52601160045260245ffd5b80820180821115611103576111036114b4565b5f602082840312156114eb575f5ffd5b5035919050565b5f60208284031215611502575f5ffd5b81356001600160a01b0381168114611518575f5ffd5b9392505050565b5f5f5f5f5f5f60c08789031215611534575f5ffd5b505084359660208601359650604086013595606081013595506080810135945060a0013592509050565b5f5f5f5f5f5f5f5f60e0898b031215611575575f5ffd5b883597506020890135965060408901359550606089013594506080890135935060a0890135925060c089013567ffffffffffffffff8111156115b5575f5ffd5b8901601f81018b136115c5575f5ffd5b803567ffffffffffffffff8111156115db575f5ffd5b8b60208284010111156115ec575f5ffd5b989b979a50959850939692959194602001935050565b8082028115828204841417611103576111036114b4565b5f8261163357634e487b7160e01b5f52601260045260245ffd5b500490565b81810381811115611103576111036114b4565b6054811061166757634e487b7160e01b5f52602160045260245ffd5b9052565b8481526001600160a01b0384166020820152608060408201525f8351806080840152806020860160a085015e5f60a0828501015260a0601f19601f8301168401019150506116bc606083018461164b565b95945050505050565b5f602082840312156116d5575f5ffd5b5051919050565b82815260408101611518602083018461164b56fea164736f6c634300081b000a",
  "linkReferences": {},
  "deployedLinkReferences": {}
}