{
  "_format": "hh-sol-artifact-1",
  "contractName": "EarnProtocol",
  "sourceName": "contracts/EarnProtocol.sol",
  "abi": [
    {
      "inputs": [],
      "stateMutability": "nonpayable",
      "type": "constructor"
    },
    {
      "anonymous": false,
      "inputs": [
        {
          "indexed": true,
          "internalType": "address",
          "name": "user",
          "type": "address"
        },
        {
          "indexed": false,
          "internalType": "uint256",
          "name": "amount",
          "type": "uint256"
        }
      ],
      "name": "RewardsClaimed",
      "type": "event"
    },
    {
      "anonymous": false,
      "inputs": [
        {
          "indexed": true,
          "internalType": "address",
          "name": "user",
          "type": "address"
        },
        {
          "indexed": false,
          "internalType": "uint256",
          "name": "score",
          "type": "uint256"
        }
      ],
      "name": "ScoreCalculated",
      "type": "event"
    },
    {
      "anonymous": false,
      "inputs": [
        {
          "indexed": true,
          "internalType": "address",
          "name": "user",
          "type": "address"
        },
        {
          "indexed": false,
          "internalType": "uint256",
          "name": "amount",
          "type": "uint256"
        },
        {
          "indexed": false,
          "internalType": "uint256",
          "name": "score",
          "type": "uint256"
        }
      ],
      "name": "Staked",
      "type": "event"
    },
    {
      "anonymous": false,
      "inputs": [
        {
          "indexed": true,
          "internalType": "address",
          "name": "user",
          "type": "address"
        },
        {
          "indexed": false,
          "internalType": "uint256",
          "name": "amount",
          "type": "uint256"
        }
      ],
      "name": "Withdrawn",
      "type": "event"
    },
    {
      "inputs": [
        {
          "internalType": "externalEuint64",
          "name": "walletAge",
          "type": "bytes32"
        },
        {
          "internalType": "externalEuint64",
          "name": "transactionCount",
          "type": "bytes32"
        },
        {
          "internalType": "externalEuint64",
          "name": "ethBalance",
          "type": "bytes32"
        },
        {
          "internalType": "externalEuint64",
          "name": "totalGasUsed",
          "type": "bytes32"
        },
        {
          "internalType": "externalEuint64",
          "name": "averageTxValue",
          "type": "bytes32"
        },
        {
          "internalType": "externalEuint64",
          "name": "uniqueContracts",
          "type": "bytes32"
        },
        {
          "internalType": "bytes",
          "name": "inputProof",
          "type": "bytes"
        }
      ],
      "name": "calculateEncryptedScore",
      "outputs": [
        {
          "internalType": "euint64",
          "name": "",
          "type": "bytes32"
        }
      ],
      "stateMutability": "nonpayable",
      "type": "function"
    },
    {
      "inputs": [
        {
          "internalType": "uint256",
          "name": "score",
          "type": "uint256"
        }
      ],
      "name": "calculateInterestRate",
      "outputs": [
        {
          "internalType": "uint256",
          "name": "",
          "type": "uint256"
        }
      ],
      "stateMutability": "pure",
      "type": "function"
    },
    {
      "inputs": [
        {
          "internalType": "uint256",
          "name": "walletAge",
          "type": "uint256"
        },
        {
          "internalType": "uint256",
          "name": "transactionCount",
          "type": "uint256"
        },
        {
          "internalType": "uint256",
          "name": "ethBalance",
          "type": "uint256"
        },
        {
          "internalType": "uint256",
          "name": "totalGasUsed",
          "type": "uint256"
        },
        {
          "internalType": "uint256",
          "name": "averageTxValue",
          "type": "uint256"
        },
        {
          "internalType": "uint256",
          "name": "uniqueContracts",
          "type": "uint256"
        }
      ],
      "name": "calculatePlainScore",
      "outputs": [
        {
          "internalType": "uint256",
          "name": "",
          "type": "uint256"
        }
      ],
      "stateMutability": "nonpayable",
      "type": "function"
    },
    {
      "inputs": [
        {
          "internalType": "uint256",
          "name": "walletAge",
          "type": "uint256"
        },
        {
          "internalType": "uint256",
          "name": "transactionCount",
          "type": "uint256"
        },
        {
          "internalType": "uint256",
          "name": "ethBalance",
          "type": "uint256"
        },
        {
          "internalType": "uint256",
          "name": "totalGasUsed",
          "type": "uint256"
        },
        {
          "internalType": "uint256",
          "name": "averageTxValue",
          "type": "uint256"
        },
        {
          "internalType": "uint256",
          "name": "uniqueContracts",
          "type": "uint256"
        },
        {
          "internalType": "bytes",
          "name": "inputProof",
          "type": "bytes"
        }
      ],
      "name": "calculateScoreWithFHE",
      "outputs": [
        {
          "internalType": "uint256",
          "name": "",
          "type": "uint256"
        }
      ],
      "stateMutability": "nonpayable",
      "type": "function"
    },
    {
      "inputs": [
        {
          "internalType": "address",
          "name": "user",
          "type": "address"
        }
      ],
      "name": "canClaim",
      "outputs": [
        {
          "internalType": "bool",
          "name": "",
          "type": "bool"
        }
      ],
      "stateMutability": "view",
      "type": "function"
    },
    {
      "inputs": [
        {
          "internalType": "uint256",
          "name": "userScore",
          "type": "uint256"
        }
      ],
      "name": "claimRewards",
      "outputs": [],
      "stateMutability": "nonpayable",
      "type": "function"
    },
    {
      "inputs": [],
      "name": "contractBalance",
      "outputs": [
        {
          "internalType": "uint256",
          "name": "",
          "type": "uint256"
        }
      ],
      "stateMutability": "view",
      "type": "function"
    },
    {
      "inputs": [],
      "name": "getEncryptedScore",
      "outputs": [
        {
          "internalType": "euint64",
          "name": "",
          "type": "bytes32"
        }
      ],
      "stateMutability": "view",
      "type": "function"
    },
    {
      "inputs": [
        {
          "internalType": "address",
          "name": "user",
          "type": "address"
        }
      ],
      "name": "getUserData",
      "outputs": [
        {
          "internalType": "uint256",
          "name": "_stakedAmount",
          "type": "uint256"
        },
        {
          "internalType": "uint256",
          "name": "_lastClaimTime",
          "type": "uint256"
        },
        {
          "internalType": "uint256",
          "name": "_totalEarned",
          "type": "uint256"
        },
        {
          "internalType": "bool",
          "name": "_hasStaked",
          "type": "bool"
        }
      ],
      "stateMutability": "view",
      "type": "function"
    },
    {
      "inputs": [
        {
          "internalType": "address",
          "name": "user",
          "type": "address"
        }
      ],
      "name": "getUserScoreStatus",
      "outputs": [
        {
          "internalType": "bool",
          "name": "hasCalculated",
          "type": "bool"
        },
        {
          "internalType": "uint256",
          "name": "score",
          "type": "uint256"
        }
      ],
      "stateMutability": "view",
      "type": "function"
    },
    {
      "inputs": [
        {
          "internalType": "address",
          "name": "",
          "type": "address"
        }
      ],
      "name": "hasCalculatedScore",
      "outputs": [
        {
          "internalType": "bool",
          "name": "",
          "type": "bool"
        }
      ],
      "stateMutability": "view",
      "type": "function"
    },
    {
      "inputs": [
        {
          "internalType": "address",
          "name": "",
          "type": "address"
        }
      ],
      "name": "hasStaked",
      "outputs": [
        {
          "internalType": "bool",
          "name": "",
          "type": "bool"
        }
      ],
      "stateMutability": "view",
      "type": "function"
    },
    {
      "inputs": [
        {
          "internalType": "address",
          "name": "",
          "type": "address"
        }
      ],
      "name": "lastClaimTime",
      "outputs": [
        {
          "internalType": "uint256",
          "name": "",
          "type": "uint256"
        }
      ],
      "stateMutability": "view",
      "type": "function"
    },
    {
      "inputs": [],
      "name": "owner",
      "outputs": [
        {
          "internalType": "address",
          "name": "",
          "type": "address"
        }
      ],
      "stateMutability": "view",
      "type": "function"
    },
    {
      "inputs": [],
      "name": "protocolId",
      "outputs": [
        {
          "internalType": "uint256",
          "name": "",
          "type": "uint256"
        }
      ],
      "stateMutability": "pure",
      "type": "function"
    },
    {
      "inputs": [],
      "name": "stake",
      "outputs": [],
      "stateMutability": "payable",
      "type": "function"
    },
    {
      "inputs": [
        {
          "internalType": "uint256",
          "name": "walletAge",
          "type": "uint256"
        },
        {
          "internalType": "uint256",
          "name": "transactionCount",
          "type": "uint256"
        },
        {
          "internalType": "uint256",
          "name": "ethBalance",
          "type": "uint256"
        },
        {
          "internalType": "uint256",
          "name": "totalGasUsed",
          "type": "uint256"
        },
        {
          "internalType": "uint256",
          "name": "averageTxValue",
          "type": "uint256"
        },
        {
          "internalType": "uint256",
          "name": "uniqueContracts",
          "type": "uint256"
        },
        {
          "internalType": "bytes",
          "name": "inputProof",
          "type": "bytes"
        }
      ],
      "name": "stakeWithEncryptedScore",
      "outputs": [],
      "stateMutability": "payable",
      "type": "function"
    },
    {
      "inputs": [
        {
          "internalType": "address",
          "name": "",
          "type": "address"
        }
      ],
      "name": "stakedAmount",
      "outputs": [
        {
          "internalType": "uint256",
          "name": "",
          "type": "uint256"
        }
      ],
      "stateMutability": "view",
      "type": "function"
    },
    {
      "inputs": [
        {
          "internalType": "address",
          "name": "",
          "type": "address"
        }
      ],
      "name": "totalEarned",
      "outputs": [
        {
          "internalType": "uint256",
          "name": "",
          "type": "uint256"
        }
      ],
      "stateMutability": "view",
      "type": "function"
    },
    {
      "inputs": [],
      "name": "totalStaked",
      "outputs": [
        {
          "internalType": "uint256",
          "name": "",
          "type": "uint256"
        }
      ],
      "stateMutability": "view",
      "type": "function"
    },
    {
      "inputs": [],
      "name": "updateContractBalance",
      "outputs": [],
      "stateMutability": "nonpayable",
      "type": "function"
    },
    {
      "inputs": [
        {
          "internalType": "address",
          "name": "",
          "type": "address"
        }
      ],
      "name": "userPlainScore",
      "outputs": [
        {
          "internalType": "uint256",
          "name": "",
          "type": "uint256"
        }
      ],
      "stateMutability": "view",
      "type": "function"
    },
    {
      "inputs": [],
      "name": "withdraw",
      "outputs": [],
      "stateMutability": "nonpayable",
      "type": "function"
    },
    {
      "inputs": [],
      "name": "withdrawContractBalance",
      "outputs": [],
      "stateMutability": "nonpayable",
      "type": "function"
    },
    {
      "stateMutability": "payable",
      "type": "receive"
    }
  ],
  "bytecode": "0x60806040523461017c575f6060610014610180565b8281528260208201528260408201520152731364cbbf2cdf5032c47d8226a6f6fbd2afcdacac6060610044610180565b73687820221192c5b662b25367f70076a37bc79b6c80825273848b0066793bcc60346da1f49049357399b8d5956020830181905273a02cda4ca3a71d7c46997716f4283aa851c28812604080850182905294909301949094527f9e7b61f58c47dc699ac88507c4f5bb9f121c03808c5676a8078fe583e464970080546001600160a01b031990811690921790557f9e7b61f58c47dc699ac88507c4f5bb9f121c03808c5676a8078fe583e4649701805482169094179093557f9e7b61f58c47dc699ac88507c4f5bb9f121c03808c5676a8078fe583e46497028054841690911790557f9e7b61f58c47dc699ac88507c4f5bb9f121c03808c5676a8078fe583e464970380548316731364cbbf2cdf5032c47d8226a6f6fbd2afcdacac179055600980549092163317909155516111c390816101b48239f35b5f80fd5b60405190608082016001600160401b0381118382101761019f57604052565b634e487b7160e01b5f52604160045260245ffdfe60806040526004361015610029575b3615610018575f80fd5b61002434600854610cf6565b600855005b5f3560e01c80630962ef7914610ab95780630a9981e814610a9d5780633a4b66f114610a875780633c85437014610a4c5780633ccfd60b1461093257806346c2fff5146109065780635915009f146107e85780635cc1402f14610715578063649aca4a146106da5780636fb62775146105465780637010190014610506578063817b1cd2146104e95780638b7afe2e146104cc5780638da5cb5b146104a657806390d3b37914610480578063b77cf9c614610445578063bf3506c11461040c578063bfab3db9146103bb578063c93c8f341461037b578063da1f12ab1461035f578063db46c5b414610233578063deee35f1146101e2578063f9931855146101a75763ffc9896b0361000e57346101a35760203660031901126101a3576004356001600160a01b0381168091036101a3575f90815260016020908152604080832054600283528184205460038452828520546004855294839020548351928352938201529081019290925260ff1615156060820152608090f35b5f80fd5b346101a35760203660031901126101a3576004356001600160a01b0381168091036101a3575f526001602052602060405f2054604051908152f35b346101a35760203660031901126101a3576004356001600160a01b0381168091036101a357806040915f52600560205260ff825f205416905f526006602052815f2054825191151582526020820152f35b346101a35760e03660031901126101a35760c43567ffffffffffffffff81116101a35761031161030c61026d61031b933690600401610c35565b61030c610289610281949394368487610e8f565b600435610ffd565b9361030c6102a361029b368685610e8f565b602435610ffd565b61030c6102bc6102b4368887610e8f565b604435610ffd565b9161030c6103036102fb6102dc6102d4368c8b610e8f565b606435610ffd565b976102f36102eb368d84610e8f565b608435610ffd565b9a3691610e8f565b60a435610ffd565b9961030c610ed5565b610f65565b805f553090611139565b6103275f543390611139565b6040515f81527f4f63780d585edbea86c409e7eb541e3ec6e7c3a648e7a393f61025c1b21cc78860203392a260205f54604051908152f35b346101a3575f3660031901126101a35760206040516127118152f35b346101a35760203660031901126101a3576004356001600160a01b0381168091036101a3575f526004602052602060ff60405f2054166040519015158152f35b346101a3575f3660031901126101a3575f8080806001600160a01b03600954166103e6813314610d68565b4790828215610403575bf1156103f857005b6040513d5f823e3d90fd5b506108fc6103f0565b346101a35760203660031901126101a3576004356001600160a01b03811681036101a35761043b602091610e17565b6040519015158152f35b346101a35760203660031901126101a3576004356001600160a01b0381168091036101a3575f526002602052602060405f2054604051908152f35b346101a35760203660031901126101a357602061049e600435610dbe565b604051908152f35b346101a3575f3660031901126101a35760206001600160a01b0360095416604051908152f35b346101a3575f3660031901126101a3576020600854604051908152f35b346101a3575f3660031901126101a3576020600754604051908152f35b346101a35760203660031901126101a3576004356001600160a01b0381168091036101a3575f526005602052602060ff60405f2054166040519015158152f35b346101a35761055436610c63565b5050946105a1610311610568969396610ed5565b61030c610573610ed5565b61030c61057e610ed5565b61030c610589610ed5565b9161030c610595610ed5565b9561030c610303610ed5565b6105ad5f543390611139565b601b810290808204601b14901517156106bd576105dc9161012c8111156106d15750606461012c915b04610cf6565b6064830292808404606414901517156106bd57610605614e2091620f424061060d950490610cf6565b910490610cf6565b6101f48202918083046101f414901517156106bd57620f4240610631920490610cf6565b6019820291808304601914901517156106bd57600a610651920490610cf6565b6103e881116106b4575b602090335f526005825260405f20600160ff19825416179055335f52600682528060405f20556040518181527f4f63780d585edbea86c409e7eb541e3ec6e7c3a648e7a393f61025c1b21cc788833392a2604051908152f35b506103e861065b565b634e487b7160e01b5f52601160045260245ffd5b606490916105d6565b346101a35760203660031901126101a3576004356001600160a01b0381168091036101a3575f526003602052602060405f2054604051908152f35b61071e36610c63565b5050505050505050341515806107d9575b61073d610311610568610ed5565b6107495f543390611139565b335f52600160205260405f20610760348254610cf6565b9055335f5260026020524260405f2055335f52600460205260405f20600160ff1982541617905561079334600754610cf6565b6007556107a234600854610cf6565b6008556040513481525f60208201527f1449c6dd7851abc30abf37f57715f492010519147cc2652fbc38202c18a6ee9060403392a2005b6107e290610d03565b8061072f565b346101a35760c03660031901126101a35760a435608435604435601b6004358181029160243591829181159185041417156106bd57606461083b93049060c882116108fd575b61012c106108f357610cf6565b906064810290808204606414901517156106bd5761087f91620f424061086a92049060c882116108ea57610cf6565b614e206064350490609682116108e157610cf6565b6101f48202918083046101f414901517156106bd57620f42406108ab920490606482116108d857610cf6565b6019820291808304601914901517156106bd57600a6106519204906032821115610cf65760329150610cf6565b60649150610cf6565b60969150610cf6565b60c89150610cf6565b61012c9150610cf6565b60c8915061082e565b346101a3575f3660031901126101a35761092c6001600160a01b03600954163314610d68565b47600855005b346101a3575f3660031901126101a357335f52600460205261095a60ff60405f205416610caa565b335f52600160205260405f205415610a0757335f52600160205260405f205461098581600754610d5b565b60075561099481600854610d5b565b600855335f5260016020525f6040812055335f52600460205260405f2060ff198154169055805f81156109fe575b5f80809381933390f1156103f8576040519081527f7084f5476618d8e60b11ef0d7d3f06914655adb8793e28ff7f018d4c76d505d560203392a2005b506108fc6109c2565b60405162461bcd60e51b815260206004820152601560248201527f4e6f20616d6f756e7420746f20776974686472617700000000000000000000006044820152606490fd5b346101a35760203660031901126101a3576004356001600160a01b0381168091036101a3575f526006602052602060405f2054604051908152f35b5f3660031901126101a357610749341515610d03565b346101a3575f3660031901126101a35760205f54604051908152f35b346101a35760203660031901126101a357335f526004602052610ae260ff60405f205416610caa565b335f52600260205260405f20546201518081018091116106bd574210610bf057610b0d600435610dbe565b335f52600160205260405f20548181029181830414901517156106bd576127109004804710610bab57335f5260026020524260405f2055335f52600360205260405f20610b5b828254610cf6565b9055805f8115610ba2575b5f80809381933390f1156103f8576040519081527ffc30cddea38e2bf4d6ea7d3f9ed3b6ad7f176419f4963bd81318067a4aee73fe60203392a2005b506108fc610b66565b60405162461bcd60e51b815260206004820152601d60248201527f496e73756666696369656e7420636f6e74726163742062616c616e63650000006044820152606490fd5b60405162461bcd60e51b815260206004820152600d60248201527f5761697420323420686f757273000000000000000000000000000000000000006044820152606490fd5b9181601f840112156101a35782359167ffffffffffffffff83116101a357602083818601950101116101a357565b60e06003198201126101a357600435916024359160443591606435916084359160a4359160c4359067ffffffffffffffff82116101a357610ca691600401610c35565b9091565b15610cb157565b60405162461bcd60e51b815260206004820152600e60248201527f4e6f207374616b6520666f756e640000000000000000000000000000000000006044820152606490fd5b919082018092116106bd57565b15610d0a57565b60405162461bcd60e51b815260206004820152602360248201527f5374616b6520616d6f756e74206d75737420626520677265617465722074686160448201526206e20360ec1b6064820152608490fd5b919082039182116106bd57565b15610d6f57565b60405162461bcd60e51b815260206004820152602160248201527f4f6e6c79206f776e65722063616e2063616c6c20746869732066756e6374696f6044820152603760f91b6064820152608490fd5b610384811015610e1057610320811015610e09576102bc811015610e0257610258811015610dfb576101f41115610df55761019090565b61025890565b5061032090565b506103e890565b506104e290565b506105dc90565b6001600160a01b0316805f52600460205260ff60405f20541615610e54575f52600260205260405f20546201518081018091116106bd5742101590565b505f90565b90601f8019910116810190811067ffffffffffffffff821117610e7b57604052565b634e487b7160e01b5f52604160045260245ffd5b92919267ffffffffffffffff8211610e7b5760405191610eb9601f8201601f191660200184610e59565b8294818452818301116101a3578281602093845f960137010152565b5f60206001600160a01b037f9e7b61f58c47dc699ac88507c4f5bb9f121c03808c5676a8078fe583e46497015416604460405180948193639cd07acb60e01b8352816004840152600560248401525af19081156103f8575f91610f36575090565b90506020813d602011610f5d575b81610f5160209383610e59565b810103126101a3575190565b3d9150610f44565b908115610fed575b8015610fdb575b60209060646001600160a01b037f9e7b61f58c47dc699ac88507c4f5bb9f121c03808c5676a8078fe583e46497015416935f604051958694859363022f65e760e31b8552600485015260248401528160448401525af19081156103f8575f91610f36575090565b506020610fe6610ed5565b9050610f74565b9050610ff7610ed5565b90610f6d565b60209182916001600160a01b037f9e7b61f58c47dc699ac88507c4f5bb9f121c03808c5676a8078fe583e46497015416905f60a460405180978196829563196d0b9b60e01b84526004840152336024840152608060448401528051918291826084860152018484015e818101830184905260056064830152601f01601f191681010301925af19081156103f8575f91611107575b506001600160a01b037f9e7b61f58c47dc699ac88507c4f5bb9f121c03808c5676a8078fe583e46497005416803b156101a357604051630f8e573b60e21b815260048101839052336024820152905f908290604490829084905af180156103f8576110fa575090565b5f61110491610e59565b90565b90506020813d602011611131575b8161112260209383610e59565b810103126101a357515f611091565b3d9150611115565b6001600160a01b037f9e7b61f58c47dc699ac88507c4f5bb9f121c03808c5676a8078fe583e4649700541691823b156101a357604051635ca4b5b160e11b815260048101929092526001600160a01b03166024820152905f908290604490829084905af180156103f8576111aa5750565b5f6111b491610e59565b56fea164736f6c634300081b000a",
  "linkReferences": {},
  "deployedLinkReferences": {}
}